:100000000C943A000C9457000C9457000C94570031
:100010000C9457000C9457000C9457000C94570004
:100020000C9457000C9457000C941D010C9457002D
:100030000C9457000C9457000C9457000C945700E4
:100040000C9457000C9457000C9457000C945700D4
:100050000C9457000C9457000C9457000C945700C4
:100060000C9457000C9457000C9457000C945700B4
:100070000C94570011241FBECFEFD2E0DEBFCDBFDE
:1000800011E0A0E0B1E0EAEEF8E002C005900D92C8
:10009000AE32B107D9F721E0AEE2B1E001C01D9266
:1000A000A033B207E1F70E94B5030C9473040C94DB
:1000B000000090E0FC01E45EFE4FE081F0E0EE0F16
:1000C000FF1FE050FF4F0190F081E02D2081845F01
:1000D0009E4FDC013C9181E090E001C0880F3A9591
:1000E000EAF7822B8083089590E0FC01E45EFE4FE6
:1000F000E081F0E0EE0FFF1FE050FF4F0190F08134
:10010000E02D2081845F9E4FDC013C9181E090E0F6
:1001100001C0880F3A95EAF780958223808308957D
:10012000EF92FF920F931F93CF93DF93ECE1F1E0F7
:100130009CE0E92E91E0F92E41E050E0219130E081
:10014000220F331FE901CA5FDE4F0990D881C02D0D
:100150006881D7018D917D018A0102C0000F111FB6
:100160008A95E2F7C801962F982B988320503F4F2D
:10017000D901CD91DC919881809589238883B1E064
:10018000EC32FB07D9F6DF91CF911F910F91FF90D1
:10019000EF900895CF93DF93ACE1B1E0CCE0D1E0F4
:1001A00041E050E0ED91F0E0EE0FFF1FE050FF4F17
:1001B0000190F081E02D80812991BA0102C0660F83
:1001C000771F2A95E2F7862B808371E0AC32B70760
:1001D00049F7DF91CF910895CF93DF93ACE1B1E080
:1001E000CCE0D1E021E030E0ED91F0E0EE0FFF1F38
:1001F000E050FF4F0190F081E02D40818991B901DD
:1002000002C0660F771F8A95E2F7CB0180958423A1
:10021000808371E0AC32B70739F7DF91CF91089551
:100220003A98429AE8E6F0E0808183608083ECE6C9
:10023000F0E080818860808308951F920F920FB64E
:100240000F9211242F933F934F935F936F937F935C
:100250008F939F93AF93BF93EF93FF93329B12C003
:100260000E94EC0080912E0190E0019665E070E024
:100270000E944B0480932E0110922F01049711F4D9
:100280000E94CA00FF91EF91BF91AF919F918F9112
:100290007F916F915F914F913F912F910F900FBE82
:1002A0000F901F9018952FEF81EE94E02150804021
:1002B0009040E1F700C000000E94CA002FE788E3E9
:1002C00091E0215080409040E1F700C000000E9482
:1002D000EC002FE788E391E0215080409040E1F767
:1002E00000C000000E94CA002FE788E391E021507F
:1002F00080409040E1F700C000000E94EC002FE732
:1003000088E391E0215080409040E1F700C0000078
:100310002FEF82E597E0215080409040E1F700C048
:1003200000000E94CA002FE788E391E0215080403E
:100330009040E1F700C000000E94EC002FE788E346
:1003400091E0215080409040E1F700C000000E9401
:10035000CA002FEF80E792E0215080409040E1F703
:1003600000C000000E94EC002FE788E391E02150DC
:1003700080409040E1F700C000000E94CA002FE7D3
:1003800088E391E0215080409040E1F700C00000F8
:100390000E94EC002FE788E391E0215080409040DC
:1003A000E1F700C000000E94CA002FE788E391E057
:1003B000215080409040E1F700C000000E94EC0016
:1003C0002FE788E391E0215080409040E1F700C0A2
:1003D00000002FE789EA93E0215080409040E1F748
:1003E00000C000000E94CA002FEF80E792E0215079
:1003F00080409040E1F700C000000E94EC002FE731
:1004000088E391E0215080409040E1F700C0000077
:100410000E94CA002FEF80E792E021508040904078
:10042000E1F700C000000E94EC002FE788E391E0B4
:10043000215080409040E1F700C000000E94CA00B7
:100440002FEF80E792E0215080409040E1F700C01C
:1004500000000E94EC002FE788E391E021508040EB
:100460009040E1F700C000002FE789EA93E02150B7
:1004700080409040E1F700C000000E94CA002FE7D2
:1004800088E391E0215080409040E1F700C00000F7
:100490000E94EC002FE788E391E0215080409040DB
:1004A000E1F700C000000E94CA002FE788E391E056
:1004B000215080409040E1F700C000000E94EC0015
:1004C0002FE788E391E0215080409040E1F700C0A1
:1004D00000000E94CA002FE788E391E0215080408D
:1004E0009040E1F700C000000E94EC002FE788E395
:1004F00091E0215080409040E1F700C000000E9450
:10050000CA002FEF80E792E0215080409040E1F751
:1005100000C000000E94EC002FE788E391E021502A
:1005200080409040E1F700C000002FE789EA93E0A7
:10053000215080409040E1F700C000000E94CA00B6
:100540002FE788E391E0215080409040E1F700C020
:1005500000000E94EC002FE788E391E021508040EA
:100560009040E1F700C000002FEF82E597E02150B6
:1005700080409040E1F700C000000E94CA002FEFC9
:1005800080E792E0215080409040E1F700C00000F9
:100590000E94EC002FE788E391E0215080409040DA
:1005A000E1F700C000000E94CA002FE788E391E055
:1005B000215080409040E1F700C000000E94EC0014
:1005C0002FE788E391E0215080409040E1F700C0A0
:1005D00000000E94CA002FEF80E792E02150804087
:1005E0009040E1F700C000000E94EC002FE788E394
:1005F00091E0215080409040E1F700C000000E944F
:10060000CA002FEF80E792E0215080409040E1F750
:1006100000C000000E94EC002FE788E391E0215029
:1006200080409040E1F700C000002FE789EA93E0A6
:10063000215080409040E1F700C000000E94CA00B5
:100640002FEF80E792E0215080409040E1F700C01A
:1006500000000E94EC002FE788E391E021508040E9
:100660009040E1F700C000000E94CA002FEF80E731
:1006700092E0215080409040E1F700C000000E94CD
:10068000EC002FE788E391E0215080409040E1F7B3
:1006900000C000000E94CA002FEF80E792E02150C6
:1006A00080409040E1F700C000000E94EC002FE77E
:1006B00088E391E0215080409040E1F700C00000C5
:1006C0002FE789EA93E0215080409040E1F700C095
:1006D00000000E94CA002FE788E391E0215080408B
:1006E0009040E1F700C000000E94EC002FE788E393
:1006F00091E0215080409040E1F700C000000E944E
:10070000CA002FE788E391E0215080409040E1F754
:1007100000C000000E94EC002FE788E391E0215028
:1007200080409040E1F700C000000E94CA002FEF17
:1007300080E792E0215080409040E1F700C0000047
:100740000E94EC002FE788E391E021508040904028
:10075000E1F700C000002FE789EA93E021508040D4
:100760009040E1F700C0000008950E9490000E94B0
:1007700010010E9453017894D2E111E108E09091B8
:100780002E0180912F01911136C0982F9770909370
:100790002F01C82FC370C1111CC08C2F0E9459009B
:1007A000CE5FC031D1F7C1E08C2F0E947400CE5FC4
:1007B000C131D1F780912F018F5F80932F012FE7F7
:1007C00088E391E0215080409040E1F700C00000B4
:1007D000D6CFC82FC170C111EDCF8C2F0E947400ED
:1007E000CE5FC031D1F7C1E08C2F0E945900CE5F9F
:1007F000C131D1F7DFCF913081F46AE00E943F042C
:1008000090932F019D7F911103C00E94CA00D2CF07
:10081000913081F60E94EC00CDCF923011F56D2F12
:100820000E943F04892F90932F01993068F49830EB
:1008300019F0885F0E94590080912F01202F281BFA
:10084000822F0E945900B6CF913119F081500E9439
:10085000740080912F01912F981B892F0E947400A2
:10086000A9CF933009F0A6CF982F9F7190932F01B5
:1008700084FD02C0892FE5CF80EF890FEFCF991B50
:1008800079E004C0991F961708F0961B881F7A9587
:10089000C9F78095089597FB072E16F4009407D0AA
:1008A00077FD09D00E945F0407FC05D03EF49095C7
:1008B00081959F4F0895709561957F4F0895AA1B6C
:1008C000BB1B51E107C0AA1FBB1FA617B70710F03B
:1008D000A61BB70B881F991F5A95A9F7809590956D
:0A08E000BC01CD010895F894FFCF8C
:1008EA00250028002B000000010002000100060577
:1008FA0004030201000707060504030200000202BE
:0E090A000202020202010000000000000500CF
:00000001FF
